{
  "contractName": "Exchangeable",
  "abi": [
    {
      "constant": true,
      "inputs": [],
      "name": "owner",
      "outputs": [
        {
          "name": "",
          "type": "address"
        }
      ],
      "payable": false,
      "stateMutability": "view",
      "type": "function"
    },
    {
      "constant": false,
      "inputs": [
        {
          "name": "newOwner",
          "type": "address"
        }
      ],
      "name": "changeOwner",
      "outputs": [],
      "payable": false,
      "stateMutability": "nonpayable",
      "type": "function"
    },
    {
      "anonymous": false,
      "inputs": [
        {
          "indexed": false,
          "name": "sender",
          "type": "address"
        },
        {
          "indexed": false,
          "name": "beneficiary",
          "type": "address"
        },
        {
          "indexed": false,
          "name": "exchange",
          "type": "address"
        },
        {
          "indexed": false,
          "name": "amount",
          "type": "uint256"
        }
      ],
      "name": "LogAddTransaction",
      "type": "event"
    },
    {
      "anonymous": false,
      "inputs": [
        {
          "indexed": false,
          "name": "sender",
          "type": "address"
        }
      ],
      "name": "LogViewBalance",
      "type": "event"
    },
    {
      "anonymous": false,
      "inputs": [
        {
          "indexed": false,
          "name": "sender",
          "type": "address"
        },
        {
          "indexed": false,
          "name": "deduction",
          "type": "uint256"
        }
      ],
      "name": "LogUpdateBalance",
      "type": "event"
    },
    {
      "anonymous": false,
      "inputs": [
        {
          "indexed": false,
          "name": "newOwner",
          "type": "address"
        },
        {
          "indexed": false,
          "name": "currentOwner",
          "type": "address"
        }
      ],
      "name": "LogOwnerChanged",
      "type": "event"
    }
  ],
  "bytecode": "0x6080604052336000806101000a81548173ffffffffffffffffffffffffffffffffffffffff021916908373ffffffffffffffffffffffffffffffffffffffff1602179055506102da806100536000396000f30060806040526004361061004c576000357c0100000000000000000000000000000000000000000000000000000000900463ffffffff1680638da5cb5b14610051578063a6f9dae1146100a8575b600080fd5b34801561005d57600080fd5b506100666100eb565b604051808273ffffffffffffffffffffffffffffffffffffffff1673ffffffffffffffffffffffffffffffffffffffff16815260200191505060405180910390f35b3480156100b457600080fd5b506100e9600480360381019080803573ffffffffffffffffffffffffffffffffffffffff169060200190929190505050610110565b005b6000809054906101000a900473ffffffffffffffffffffffffffffffffffffffff1681565b3373ffffffffffffffffffffffffffffffffffffffff166000809054906101000a900473ffffffffffffffffffffffffffffffffffffffff1673ffffffffffffffffffffffffffffffffffffffff161415156101d4576040517f08c379a000000000000000000000000000000000000000000000000000000000815260040180806020018281038252600c8152602001807f556e6174686f72697a65642e000000000000000000000000000000000000000081525060200191505060405180910390fd5b7ffcf23a92150d56e85e3a3d33b357493246e55783095eb6a733eb8439ffc752c88133604051808373ffffffffffffffffffffffffffffffffffffffff1673ffffffffffffffffffffffffffffffffffffffff1681526020018273ffffffffffffffffffffffffffffffffffffffff1673ffffffffffffffffffffffffffffffffffffffff1681526020019250505060405180910390a1806000806101000a81548173ffffffffffffffffffffffffffffffffffffffff021916908373ffffffffffffffffffffffffffffffffffffffff160217905550505600a165627a7a72305820f8a109707cab90f67bc6c2bc4420953782505e2d25f2b18d8bf001697cf542700029",
  "source": "pragma solidity 0.4.24;\n\nimport \"./UniqueKey.sol\";\nimport \"./Owned.sol\";\n\ncontract Exchangeable is UniqueKey, Owned {\n\n  event LogAddTransaction(address sender, address beneficiary,address exchange,uint amount);\n\n  event LogViewBalance(address sender);\n  event LogUpdateBalance(address sender,uint deduction);\n\n  struct Transaction {\n    address beneficiary;\n    address exchange;\n    uint amount;\n  }\n\n  mapping (bytes32 => mapping(bytes32 => Transaction)) pendingWithdrawals;\n  \n\n  modifier onlyIfDetailsAreCorrect(string passwordOne, string passwordTwo, address beneficiary,address exchange, uint amount)\n  {\n    require (bytes(passwordOne).length > 0,\"Password One cannot be empty\");\n    require (bytes(passwordTwo).length > 0,\"Password Two cannot be empty\");\n    require (beneficiary != address(0),\"Beneficiary address cannot be null\");\n    require (exchange != address(0),\"Exchange address cannot be null\");\n    require (amount > 0,\"Amount cannot be zero\");\n    _;\n  }\n\n  modifier onlyIfContract(string passwordOne, string passwordTwo) \n  {\n    require (bytes(passwordOne).length > 0,\"Password One cannot be empty\");\n    require (bytes(passwordTwo).length > 0,\"Password Two cannot be empty\");\n    require (pendingWithdrawals[getUniqueKey(passwordOne)][getUniqueKey(passwordTwo)].beneficiary != address(0),\"Cannot find contract.\");\n    _;\n  }\n\n  modifier onlyIfExchange(string passwordOne, string passwordTwo) \n  {\n    require (bytes(passwordOne).length > 0,\"Password One cannot be empty\");\n    require (bytes(passwordTwo).length > 0,\"Password Two cannot be empty\");\n    require (pendingWithdrawals[getUniqueKey(passwordOne)][getUniqueKey(passwordTwo)].exchange == msg.sender,\"Unauthorized.\");\n    _;\n  }\n\n  function addTransaction(\n    address beneficiary, \n    address exchange,\n    string passwordOne,\n    string passwordTwo, \n    uint amount\n  )  internal onlyIfDetailsAreCorrect(passwordOne, passwordTwo, beneficiary, exchange,amount) onlyOwner \n  {\n    emit LogAddTransaction(msg.sender,beneficiary, exchange, amount);\n    pendingWithdrawals[getUniqueKey(passwordOne)][getUniqueKey(passwordTwo)] = Transaction(beneficiary,exchange,amount);\n  }\n\n  function viewBalance(\n    string passwordOne, \n    string passwordTwo\n  )  internal onlyIfContract(passwordOne, passwordTwo) onlyIfExchange(passwordOne, passwordTwo) returns (uint)\n  {\n    emit LogViewBalance(msg.sender);\n    return (pendingWithdrawals[getUniqueKey(passwordOne)][getUniqueKey(passwordTwo)].amount);\n  }\n\n  function updateBalance(\n    string passwordOne, \n    string passwordTwo,\n    uint deduction\n  )  internal onlyIfExchange(passwordOne, passwordTwo)\n  {\n    emit LogUpdateBalance(msg.sender,deduction);\n    require (pendingWithdrawals[getUniqueKey(passwordOne)][getUniqueKey(passwordTwo)].amount >= deduction,\"Not enough funds\");\n    pendingWithdrawals[getUniqueKey(passwordOne)][getUniqueKey(passwordTwo)].amount -= deduction;\n  }\n}",
  "sourcePath": "/home/richard/DAPPS/Remittence/contracts/Exchangeable.sol",
  "compiler": {
    "name": "solc",
    "version": "0.4.24+commit.e67f0147.Emscripten.clang"
  },
  "schemaVersion": "2.0.1",
  "updatedAt": "2018-09-21T21:23:23.500Z"
}