{
  "contractName": "Exchangeable",
  "abi": [
    {
      "constant": true,
      "inputs": [
        {
          "name": "",
          "type": "bytes32"
        }
      ],
      "name": "hashUsed",
      "outputs": [
        {
          "name": "",
          "type": "bool"
        }
      ],
      "payable": false,
      "stateMutability": "view",
      "type": "function"
    },
    {
      "constant": true,
      "inputs": [],
      "name": "owner",
      "outputs": [
        {
          "name": "",
          "type": "address"
        }
      ],
      "payable": false,
      "stateMutability": "view",
      "type": "function"
    },
    {
      "constant": false,
      "inputs": [
        {
          "name": "newOwner",
          "type": "address"
        }
      ],
      "name": "changeOwner",
      "outputs": [],
      "payable": false,
      "stateMutability": "nonpayable",
      "type": "function"
    },
    {
      "anonymous": false,
      "inputs": [
        {
          "indexed": false,
          "name": "sender",
          "type": "address"
        },
        {
          "indexed": false,
          "name": "beneficiary",
          "type": "address"
        },
        {
          "indexed": false,
          "name": "exchange",
          "type": "address"
        },
        {
          "indexed": false,
          "name": "amount",
          "type": "uint256"
        }
      ],
      "name": "LogAddTransaction",
      "type": "event"
    },
    {
      "anonymous": false,
      "inputs": [
        {
          "indexed": false,
          "name": "sender",
          "type": "address"
        }
      ],
      "name": "LogViewBalance",
      "type": "event"
    },
    {
      "anonymous": false,
      "inputs": [
        {
          "indexed": false,
          "name": "sender",
          "type": "address"
        },
        {
          "indexed": false,
          "name": "deduction",
          "type": "uint256"
        }
      ],
      "name": "LogUpdateBalance",
      "type": "event"
    },
    {
      "anonymous": false,
      "inputs": [
        {
          "indexed": false,
          "name": "newOwner",
          "type": "address"
        },
        {
          "indexed": false,
          "name": "currentOwner",
          "type": "address"
        }
      ],
      "name": "LogOwnerChanged",
      "type": "event"
    },
    {
      "constant": true,
      "inputs": [
        {
          "name": "exchange",
          "type": "address"
        },
        {
          "name": "beneficiary",
          "type": "bytes32"
        }
      ],
      "name": "hashHelper",
      "outputs": [
        {
          "name": "",
          "type": "bytes32"
        }
      ],
      "payable": false,
      "stateMutability": "view",
      "type": "function"
    }
  ],
  "bytecode": "0x6080604052336000806101000a81548173ffffffffffffffffffffffffffffffffffffffff021916908373ffffffffffffffffffffffffffffffffffffffff1602179055506105a4806100536000396000f300608060405260043610610062576000357c0100000000000000000000000000000000000000000000000000000000900463ffffffff16806309cc1c6d14610067578063533e62b6146100d45780638da5cb5b1461011d578063a6f9dae114610174575b600080fd5b34801561007357600080fd5b506100b6600480360381019080803573ffffffffffffffffffffffffffffffffffffffff16906020019092919080356000191690602001909291905050506101b7565b60405180826000191660001916815260200191505060405180910390f35b3480156100e057600080fd5b506101036004803603810190808035600019169060200190929190505050610395565b604051808215151515815260200191505060405180910390f35b34801561012957600080fd5b506101326103b5565b604051808273ffffffffffffffffffffffffffffffffffffffff1673ffffffffffffffffffffffffffffffffffffffff16815260200191505060405180910390f35b34801561018057600080fd5b506101b5600480360381019080803573ffffffffffffffffffffffffffffffffffffffff1690602001909291905050506103da565b005b60003373ffffffffffffffffffffffffffffffffffffffff166000809054906101000a900473ffffffffffffffffffffffffffffffffffffffff1673ffffffffffffffffffffffffffffffffffffffff1614151561027d576040517f08c379a000000000000000000000000000000000000000000000000000000000815260040180806020018281038252600c8152602001807f556e6174686f72697a65642e000000000000000000000000000000000000000081525060200191505060405180910390fd5b828230604051602001808473ffffffffffffffffffffffffffffffffffffffff1673ffffffffffffffffffffffffffffffffffffffff166c0100000000000000000000000002815260140183600019166000191681526020018273ffffffffffffffffffffffffffffffffffffffff1673ffffffffffffffffffffffffffffffffffffffff166c0100000000000000000000000002815260140193505050506040516020818303038152906040526040518082805190602001908083835b602083101515610360578051825260208201915060208101905060208303925061033b565b6001836020036101000a0380198251168184511680821785525050505050509050019150506040518091039020905092915050565b60016020528060005260406000206000915054906101000a900460ff1681565b6000809054906101000a900473ffffffffffffffffffffffffffffffffffffffff1681565b3373ffffffffffffffffffffffffffffffffffffffff166000809054906101000a900473ffffffffffffffffffffffffffffffffffffffff1673ffffffffffffffffffffffffffffffffffffffff1614151561049e576040517f08c379a000000000000000000000000000000000000000000000000000000000815260040180806020018281038252600c8152602001807f556e6174686f72697a65642e000000000000000000000000000000000000000081525060200191505060405180910390fd5b7ffcf23a92150d56e85e3a3d33b357493246e55783095eb6a733eb8439ffc752c88133604051808373ffffffffffffffffffffffffffffffffffffffff1673ffffffffffffffffffffffffffffffffffffffff1681526020018273ffffffffffffffffffffffffffffffffffffffff1673ffffffffffffffffffffffffffffffffffffffff1681526020019250505060405180910390a1806000806101000a81548173ffffffffffffffffffffffffffffffffffffffff021916908373ffffffffffffffffffffffffffffffffffffffff160217905550505600a165627a7a72305820a9f7dd9c1973843a11d676357c5596f7cb917e787f729a3c14e203c4fd9c36640029",
  "source": "pragma solidity 0.4.24;\n\nimport \"./Owned.sol\";\n\ncontract Exchangeable is Owned {\n\n  event LogAddTransaction(address sender, address beneficiary,address exchange,uint amount);\n  event LogViewBalance(address sender);\n  event LogUpdateBalance(address sender,uint deduction);\n\n  struct RemittanceStruct {\n    address exchange;\n    uint amount;\n    uint timestamp;\n  }\n\n  mapping (bytes32 => bool) public hashUsed;\n  mapping (bytes32 => RemittanceStruct) internal pendingWithdrawals;\n  \n  function hashHelper(address exchange, bytes32 beneficiary) public onlyOwner view returns(bytes32) {\n    return keccak256(abi.encodePacked(exchange, beneficiary, address(this)));\n  }\n\n  modifier onlyIfDetailsAreCorrect(string passwordOne, address beneficiary,address exchange, uint amount)\n  {\n    require (bytes(passwordOne).length > 0,\"Password One cannot be empty\");\n    require (hashUsed[keccak256(abi.encodePacked(passwordOne))] == false,\"This password has already been used.\");\n    require (beneficiary != address(0),\"Beneficiary address cannot be null\");\n    require (exchange != address(0),\"Exchange address cannot be null\");\n    require (amount > 0,\"Amount cannot be zero\");\n    _;\n  }\n\n  modifier onlyIfExchange(bytes32 passwordHash) \n  {\n    require (passwordHash.length > 0,\"Password hash cannot be empty\");\n    require (pendingWithdrawals[passwordHash].exchange == msg.sender,\"Unauthorized!\");\n    require ((((pendingWithdrawals[passwordHash].timestamp - now) / 60 / 60 / 24 ) < 30), \"30 day withdrawal expired\");\n    _;\n  }\n\n  function addTransaction(\n    address beneficiary, \n    address exchange,\n    string passwordOne,\n    uint amount\n  )  internal onlyIfDetailsAreCorrect(passwordOne, beneficiary, exchange,amount) onlyOwner\n  {\n    emit LogAddTransaction(msg.sender,beneficiary, exchange, amount);\n    hashUsed[keccak256(abi.encodePacked(passwordOne))] = true;\n    bytes32 passwordHash = hashHelper(exchange,keccak256(abi.encodePacked(passwordOne)));\n    pendingWithdrawals[passwordHash] = RemittanceStruct(exchange,amount,now);\n  }\n\n  function viewBalance(\n    bytes32 passwordHash\n  )  internal onlyIfExchange(passwordHash) returns (uint)\n  {\n    emit LogViewBalance(msg.sender);\n    return (pendingWithdrawals[passwordHash].amount);\n  }\n\n  function updateBalance(\n    bytes32 passwordHash,\n    uint deduction\n  )  internal onlyIfExchange(passwordHash)\n  {\n    emit LogUpdateBalance(msg.sender,deduction);\n    require (pendingWithdrawals[passwordHash].amount >= deduction,\"Not enough funds\");\n    pendingWithdrawals[passwordHash].amount -= deduction;\n  }\n}",
  "sourcePath": "/home/richard/DAPPS/Remittence/contracts/Exchangeable.sol",
  "compiler": {
    "name": "solc",
    "version": "0.4.24+commit.e67f0147.Emscripten.clang"
  },
  "schemaVersion": "2.0.1",
  "updatedAt": "2018-09-23T21:40:07.115Z"
}