{
  "contractName": "Pauseable",
  "abi": [
    {
      "constant": true,
      "inputs": [],
      "name": "owner",
      "outputs": [
        {
          "name": "",
          "type": "address"
        }
      ],
      "payable": false,
      "stateMutability": "view",
      "type": "function"
    },
    {
      "constant": false,
      "inputs": [
        {
          "name": "newOwner",
          "type": "address"
        }
      ],
      "name": "changeOwner",
      "outputs": [],
      "payable": false,
      "stateMutability": "nonpayable",
      "type": "function"
    },
    {
      "inputs": [],
      "payable": false,
      "stateMutability": "nonpayable",
      "type": "constructor"
    },
    {
      "anonymous": false,
      "inputs": [
        {
          "indexed": false,
          "name": "account",
          "type": "address"
        }
      ],
      "name": "LogContractStopped",
      "type": "event"
    },
    {
      "anonymous": false,
      "inputs": [
        {
          "indexed": false,
          "name": "account",
          "type": "address"
        }
      ],
      "name": "LogContractResumed",
      "type": "event"
    },
    {
      "anonymous": false,
      "inputs": [
        {
          "indexed": false,
          "name": "newOwner",
          "type": "address"
        },
        {
          "indexed": false,
          "name": "currentOwner",
          "type": "address"
        }
      ],
      "name": "LogOwnerChanged",
      "type": "event"
    },
    {
      "constant": false,
      "inputs": [],
      "name": "stopContract",
      "outputs": [],
      "payable": false,
      "stateMutability": "nonpayable",
      "type": "function"
    },
    {
      "constant": false,
      "inputs": [],
      "name": "resumeContract",
      "outputs": [],
      "payable": false,
      "stateMutability": "nonpayable",
      "type": "function"
    }
  ],
  "bytecode": "0x608060405260008060146101000a81548160ff02191690831515021790555034801561002a57600080fd5b50336000806101000a81548173ffffffffffffffffffffffffffffffffffffffff021916908373ffffffffffffffffffffffffffffffffffffffff1602179055506105a58061007a6000396000f300608060405260043610610062576000357c0100000000000000000000000000000000000000000000000000000000900463ffffffff16806312253a6c146100675780638da5cb5b1461007e578063a6f9dae1146100d5578063c4bc5da514610118575b600080fd5b34801561007357600080fd5b5061007c61012f565b005b34801561008a57600080fd5b50610093610273565b604051808273ffffffffffffffffffffffffffffffffffffffff1673ffffffffffffffffffffffffffffffffffffffff16815260200191505060405180910390f35b3480156100e157600080fd5b50610116600480360381019080803573ffffffffffffffffffffffffffffffffffffffff169060200190929190505050610298565b005b34801561012457600080fd5b5061012d610436565b005b3373ffffffffffffffffffffffffffffffffffffffff166000809054906101000a900473ffffffffffffffffffffffffffffffffffffffff1673ffffffffffffffffffffffffffffffffffffffff161415156101f3576040517f08c379a000000000000000000000000000000000000000000000000000000000815260040180806020018281038252600c8152602001807f556e6174686f72697a65642e000000000000000000000000000000000000000081525060200191505060405180910390fd5b7f9f62d097893f0c321aba04fdc78b0d5cbe409aef7b6f7ce87508801b775c5b6d33604051808273ffffffffffffffffffffffffffffffffffffffff1673ffffffffffffffffffffffffffffffffffffffff16815260200191505060405180910390a16001600060146101000a81548160ff021916908315150217905550565b6000809054906101000a900473ffffffffffffffffffffffffffffffffffffffff1681565b3373ffffffffffffffffffffffffffffffffffffffff166000809054906101000a900473ffffffffffffffffffffffffffffffffffffffff1673ffffffffffffffffffffffffffffffffffffffff1614151561035c576040517f08c379a000000000000000000000000000000000000000000000000000000000815260040180806020018281038252600c8152602001807f556e6174686f72697a65642e000000000000000000000000000000000000000081525060200191505060405180910390fd5b7ffcf23a92150d56e85e3a3d33b357493246e55783095eb6a733eb8439ffc752c88133604051808373ffffffffffffffffffffffffffffffffffffffff1673ffffffffffffffffffffffffffffffffffffffff1681526020018273ffffffffffffffffffffffffffffffffffffffff1673ffffffffffffffffffffffffffffffffffffffff1681526020019250505060405180910390a1806000806101000a81548173ffffffffffffffffffffffffffffffffffffffff021916908373ffffffffffffffffffffffffffffffffffffffff16021790555050565b3373ffffffffffffffffffffffffffffffffffffffff166000809054906101000a900473ffffffffffffffffffffffffffffffffffffffff1673ffffffffffffffffffffffffffffffffffffffff161415156104fa576040517f08c379a000000000000000000000000000000000000000000000000000000000815260040180806020018281038252600c8152602001807f556e6174686f72697a65642e000000000000000000000000000000000000000081525060200191505060405180910390fd5b7ff772744d65604cbdd938ab80c114b946145893718b4f58fc0fc6453aa8d4258f33604051808273ffffffffffffffffffffffffffffffffffffffff1673ffffffffffffffffffffffffffffffffffffffff16815260200191505060405180910390a160008060146101000a81548160ff0219169083151502179055505600a165627a7a723058200e235f2a5abbc5de62a49c5c3140e8db818e8100adac97c5b0a0cde1c3dfe30e0029",
  "source": "pragma solidity 0.4.24;\n\nimport \"./Owned.sol\";\n\ncontract Pauseable is Owned {\n  bool isStopped = false;\n  \n  event LogContractStopped(address account);\n  event LogContractResumed(address account);\n\n  constructor () public  {\n  }\n\n\n  function stopContract() public onlyOwner {\n    emit LogContractStopped(msg.sender);\n    isStopped = true;\n  }\n\n  function resumeContract() public onlyOwner {\n    emit LogContractResumed(msg.sender);\n    isStopped = false;\n  }\n\n  modifier onlyIfRunning {\n    require(!isStopped,\"Contract Stopped.\");\n    _;\n  }\n\n  modifier onlyWhenStopped {\n    require(isStopped,\"Contract still active.\");\n    _;\n  }\n\n}",
  "sourcePath": "/home/richard/DAPPS/Remittence/contracts/Pauseable.sol",
  "compiler": {
    "name": "solc",
    "version": "0.4.24+commit.e67f0147.Emscripten.clang"
  },
  "schemaVersion": "2.0.1",
  "updatedAt": "2018-09-22T20:22:41.272Z"
}