{
  "contractName": "Remittance",
  "abi": [
    {
      "constant": false,
      "inputs": [],
      "name": "stopContract",
      "outputs": [],
      "payable": false,
      "stateMutability": "nonpayable",
      "type": "function"
    },
    {
      "constant": true,
      "inputs": [],
      "name": "owner",
      "outputs": [
        {
          "name": "",
          "type": "address"
        }
      ],
      "payable": false,
      "stateMutability": "view",
      "type": "function"
    },
    {
      "constant": false,
      "inputs": [
        {
          "name": "newOwner",
          "type": "address"
        }
      ],
      "name": "changeOwner",
      "outputs": [],
      "payable": false,
      "stateMutability": "nonpayable",
      "type": "function"
    },
    {
      "constant": false,
      "inputs": [],
      "name": "resumeContract",
      "outputs": [],
      "payable": false,
      "stateMutability": "nonpayable",
      "type": "function"
    },
    {
      "inputs": [],
      "payable": true,
      "stateMutability": "payable",
      "type": "constructor"
    },
    {
      "anonymous": false,
      "inputs": [
        {
          "indexed": false,
          "name": "sender",
          "type": "address"
        }
      ],
      "name": "LogDetailsofEmergencyWithdrawal",
      "type": "event"
    },
    {
      "anonymous": false,
      "inputs": [
        {
          "indexed": false,
          "name": "account",
          "type": "address"
        }
      ],
      "name": "LogContractStopped",
      "type": "event"
    },
    {
      "anonymous": false,
      "inputs": [
        {
          "indexed": false,
          "name": "account",
          "type": "address"
        }
      ],
      "name": "LogContractResumed",
      "type": "event"
    },
    {
      "anonymous": false,
      "inputs": [
        {
          "indexed": false,
          "name": "sender",
          "type": "address"
        },
        {
          "indexed": false,
          "name": "beneficiary",
          "type": "address"
        },
        {
          "indexed": false,
          "name": "exchange",
          "type": "address"
        },
        {
          "indexed": false,
          "name": "amount",
          "type": "uint256"
        }
      ],
      "name": "LogAddTransaction",
      "type": "event"
    },
    {
      "anonymous": false,
      "inputs": [
        {
          "indexed": false,
          "name": "sender",
          "type": "address"
        }
      ],
      "name": "LogViewBalance",
      "type": "event"
    },
    {
      "anonymous": false,
      "inputs": [
        {
          "indexed": false,
          "name": "sender",
          "type": "address"
        },
        {
          "indexed": false,
          "name": "deduction",
          "type": "uint256"
        }
      ],
      "name": "LogUpdateBalance",
      "type": "event"
    },
    {
      "anonymous": false,
      "inputs": [
        {
          "indexed": false,
          "name": "newOwner",
          "type": "address"
        },
        {
          "indexed": false,
          "name": "currentOwner",
          "type": "address"
        }
      ],
      "name": "LogOwnerChanged",
      "type": "event"
    },
    {
      "constant": false,
      "inputs": [
        {
          "name": "beneficiary",
          "type": "address"
        },
        {
          "name": "exchange",
          "type": "address"
        },
        {
          "name": "passwordOne",
          "type": "string"
        },
        {
          "name": "passwordTwo",
          "type": "string"
        },
        {
          "name": "amount",
          "type": "uint256"
        }
      ],
      "name": "createRemittance",
      "outputs": [],
      "payable": false,
      "stateMutability": "nonpayable",
      "type": "function"
    },
    {
      "constant": false,
      "inputs": [
        {
          "name": "passwordOne",
          "type": "string"
        },
        {
          "name": "passwordTwo",
          "type": "string"
        },
        {
          "name": "amount",
          "type": "uint256"
        }
      ],
      "name": "transferBalance",
      "outputs": [],
      "payable": false,
      "stateMutability": "nonpayable",
      "type": "function"
    },
    {
      "constant": false,
      "inputs": [],
      "name": "emergencyWithdraw",
      "outputs": [],
      "payable": false,
      "stateMutability": "nonpayable",
      "type": "function"
    },
    {
      "constant": false,
      "inputs": [
        {
          "name": "passwordOne",
          "type": "string"
        },
        {
          "name": "passwordTwo",
          "type": "string"
        }
      ],
      "name": "readBalance",
      "outputs": [
        {
          "name": "",
          "type": "uint256"
        }
      ],
      "payable": false,
      "stateMutability": "nonpayable",
      "type": "function"
    }
  ],
  "bytecode": "0x60806040526000600260006101000a81548160ff021916908315150217905550336000806101000a81548173ffffffffffffffffffffffffffffffffffffffff021916908373ffffffffffffffffffffffffffffffffffffffff160217905550611ce18061006e6000396000f30060806040526004361061008e576000357c0100000000000000000000000000000000000000000000000000000000900463ffffffff16806312253a6c1461009357806377049323146100aa5780638da5cb5b146101a3578063a6f9dae1146101fa578063ab97f8b11461023d578063bf11e08c14610300578063c4bc5da5146103b9578063db2e21bc146103d0575b600080fd5b34801561009f57600080fd5b506100a86103e7565b005b3480156100b657600080fd5b506101a1600480360381019080803573ffffffffffffffffffffffffffffffffffffffff169060200190929190803573ffffffffffffffffffffffffffffffffffffffff169060200190929190803590602001908201803590602001908080601f0160208091040260200160405190810160405280939291908181526020018383808284378201915050505050509192919290803590602001908201803590602001908080601f01602080910402602001604051908101604052809392919081815260200183838082843782019150505050505091929192908035906020019092919050505061052b565b005b3480156101af57600080fd5b506101b86105c4565b604051808273ffffffffffffffffffffffffffffffffffffffff1673ffffffffffffffffffffffffffffffffffffffff16815260200191505060405180910390f35b34801561020657600080fd5b5061023b600480360381019080803573ffffffffffffffffffffffffffffffffffffffff1690602001909291905050506105e9565b005b34801561024957600080fd5b506102ea600480360381019080803590602001908201803590602001908080601f0160208091040260200160405190810160405280939291908181526020018383808284378201915050505050509192919290803590602001908201803590602001908080601f0160208091040260200160405190810160405280939291908181526020018383808284378201915050505050509192919290505050610787565b6040518082815260200191505060405180910390f35b34801561030c57600080fd5b506103b7600480360381019080803590602001908201803590602001908080601f0160208091040260200160405190810160405280939291908181526020018383808284378201915050505050509192919290803590602001908201803590602001908080601f0160208091040260200160405190810160405280939291908181526020018383808284378201915050505050509192919290803590602001909291905050506108e4565b005b3480156103c557600080fd5b506103ce6109c0565b005b3480156103dc57600080fd5b506103e5610b04565b005b3373ffffffffffffffffffffffffffffffffffffffff166000809054906101000a900473ffffffffffffffffffffffffffffffffffffffff1673ffffffffffffffffffffffffffffffffffffffff161415156104ab576040517f08c379a000000000000000000000000000000000000000000000000000000000815260040180806020018281038252600c8152602001807f556e6174686f72697a65642e000000000000000000000000000000000000000081525060200191505060405180910390fd5b7f9f62d097893f0c321aba04fdc78b0d5cbe409aef7b6f7ce87508801b775c5b6d33604051808273ffffffffffffffffffffffffffffffffffffffff1673ffffffffffffffffffffffffffffffffffffffff16815260200191505060405180910390a16001600260006101000a81548160ff021916908315150217905550565b600260009054906101000a900460ff161515156105b0576040517f08c379a00000000000000000000000000000000000000000000000000000000081526004018080602001828103825260118152602001807f436f6e74726163742053746f707065642e00000000000000000000000000000081525060200191505060405180910390fd5b6105bd8585858585610d0f565b5050505050565b6000809054906101000a900473ffffffffffffffffffffffffffffffffffffffff1681565b3373ffffffffffffffffffffffffffffffffffffffff166000809054906101000a900473ffffffffffffffffffffffffffffffffffffffff1673ffffffffffffffffffffffffffffffffffffffff161415156106ad576040517f08c379a000000000000000000000000000000000000000000000000000000000815260040180806020018281038252600c8152602001807f556e6174686f72697a65642e000000000000000000000000000000000000000081525060200191505060405180910390fd5b7ffcf23a92150d56e85e3a3d33b357493246e55783095eb6a733eb8439ffc752c88133604051808373ffffffffffffffffffffffffffffffffffffffff1673ffffffffffffffffffffffffffffffffffffffff1681526020018273ffffffffffffffffffffffffffffffffffffffff1673ffffffffffffffffffffffffffffffffffffffff1681526020019250505060405180910390a1806000806101000a81548173ffffffffffffffffffffffffffffffffffffffff021916908373ffffffffffffffffffffffffffffffffffffffff16021790555050565b6000600260009054906101000a900460ff1615151561080e576040517f08c379a00000000000000000000000000000000000000000000000000000000081526004018080602001828103825260118152602001807f436f6e74726163742053746f707065642e00000000000000000000000000000081525060200191505060405180910390fd5b3373ffffffffffffffffffffffffffffffffffffffff166000809054906101000a900473ffffffffffffffffffffffffffffffffffffffff1673ffffffffffffffffffffffffffffffffffffffff161415156108d2576040517f08c379a000000000000000000000000000000000000000000000000000000000815260040180806020018281038252600c8152602001807f556e6174686f72697a65642e000000000000000000000000000000000000000081525060200191505060405180910390fd5b6108dc8383611298565b905092915050565b600260009054906101000a900460ff16151515610969576040517f08c379a00000000000000000000000000000000000000000000000000000000081526004018080602001828103825260118152602001807f436f6e74726163742053746f707065642e00000000000000000000000000000081525060200191505060405180910390fd5b6109748383836116ed565b3373ffffffffffffffffffffffffffffffffffffffff166108fc829081150290604051600060405180830381858888f193505050501580156109ba573d6000803e3d6000fd5b50505050565b3373ffffffffffffffffffffffffffffffffffffffff166000809054906101000a900473ffffffffffffffffffffffffffffffffffffffff1673ffffffffffffffffffffffffffffffffffffffff16141515610a84576040517f08c379a000000000000000000000000000000000000000000000000000000000815260040180806020018281038252600c8152602001807f556e6174686f72697a65642e000000000000000000000000000000000000000081525060200191505060405180910390fd5b7ff772744d65604cbdd938ab80c114b946145893718b4f58fc0fc6453aa8d4258f33604051808273ffffffffffffffffffffffffffffffffffffffff1673ffffffffffffffffffffffffffffffffffffffff16815260200191505060405180910390a16000600260006101000a81548160ff021916908315150217905550565b600260009054906101000a900460ff161515610b88576040517f08c379a00000000000000000000000000000000000000000000000000000000081526004018080602001828103825260168152602001807f436f6e7472616374207374696c6c206163746976652e0000000000000000000081525060200191505060405180910390fd5b3373ffffffffffffffffffffffffffffffffffffffff166000809054906101000a900473ffffffffffffffffffffffffffffffffffffffff1673ffffffffffffffffffffffffffffffffffffffff16141515610c4c576040517f08c379a000000000000000000000000000000000000000000000000000000000815260040180806020018281038252600c8152602001807f556e6174686f72697a65642e000000000000000000000000000000000000000081525060200191505060405180910390fd5b7f882b8ea5a1d449a306b435e85061d27b63173b8aaed2c29ab872d123b8b1579733604051808273ffffffffffffffffffffffffffffffffffffffff1673ffffffffffffffffffffffffffffffffffffffff16815260200191505060405180910390a13373ffffffffffffffffffffffffffffffffffffffff166108fc3073ffffffffffffffffffffffffffffffffffffffff16319081150290604051600060405180830381858888f19350505050158015610d0c573d6000803e3d6000fd5b50565b828286868460008551111515610d8d576040517f08c379a000000000000000000000000000000000000000000000000000000000815260040180806020018281038252601c8152602001807f50617373776f7264204f6e652063616e6e6f7420626520656d7074790000000081525060200191505060405180910390fd5b60008451111515610e06576040517f08c379a000000000000000000000000000000000000000000000000000000000815260040180806020018281038252601c8152602001807f50617373776f72642054776f2063616e6e6f7420626520656d7074790000000081525060200191505060405180910390fd5b600073ffffffffffffffffffffffffffffffffffffffff168373ffffffffffffffffffffffffffffffffffffffff1614151515610ed1576040517f08c379a00000000000000000000000000000000000000000000000000000000081526004018080602001828103825260228152602001807f42656e656669636961727920616464726573732063616e6e6f74206265206e7581526020017f6c6c00000000000000000000000000000000000000000000000000000000000081525060400191505060405180910390fd5b600073ffffffffffffffffffffffffffffffffffffffff168273ffffffffffffffffffffffffffffffffffffffff1614151515610f76576040517f08c379a000000000000000000000000000000000000000000000000000000000815260040180806020018281038252601f8152602001807f45786368616e676520616464726573732063616e6e6f74206265206e756c6c0081525060200191505060405180910390fd5b600081111515610fee576040517f08c379a00000000000000000000000000000000000000000000000000000000081526004018080602001828103825260158152602001807f416d6f756e742063616e6e6f74206265207a65726f000000000000000000000081525060200191505060405180910390fd5b3373ffffffffffffffffffffffffffffffffffffffff166000809054906101000a900473ffffffffffffffffffffffffffffffffffffffff1673ffffffffffffffffffffffffffffffffffffffff161415156110b2576040517f08c379a000000000000000000000000000000000000000000000000000000000815260040180806020018281038252600c8152602001807f556e6174686f72697a65642e000000000000000000000000000000000000000081525060200191505060405180910390fd5b7f087aa92b15f503f99dce14971538d539c2172ae07c793c59be503258cb939a85338b8b89604051808573ffffffffffffffffffffffffffffffffffffffff1673ffffffffffffffffffffffffffffffffffffffff1681526020018473ffffffffffffffffffffffffffffffffffffffff1673ffffffffffffffffffffffffffffffffffffffff1681526020018373ffffffffffffffffffffffffffffffffffffffff1673ffffffffffffffffffffffffffffffffffffffff16815260200182815260200194505050505060405180910390a16060604051908101604052808b73ffffffffffffffffffffffffffffffffffffffff1681526020018a73ffffffffffffffffffffffffffffffffffffffff16815260200187815250600160006111db8b8b611a11565b6000191660001916815260200190815260200160002060008201518160000160006101000a81548173ffffffffffffffffffffffffffffffffffffffff021916908373ffffffffffffffffffffffffffffffffffffffff16021790555060208201518160010160006101000a81548173ffffffffffffffffffffffffffffffffffffffff021916908373ffffffffffffffffffffffffffffffffffffffff1602179055506040820151816002015590505050505050505050505050565b6000828260008251111515611315576040517f08c379a000000000000000000000000000000000000000000000000000000000815260040180806020018281038252601c8152602001807f50617373776f7264204f6e652063616e6e6f7420626520656d7074790000000081525060200191505060405180910390fd5b6000815111151561138e576040517f08c379a000000000000000000000000000000000000000000000000000000000815260040180806020018281038252601c8152602001807f50617373776f72642054776f2063616e6e6f7420626520656d7074790000000081525060200191505060405180910390fd5b3373ffffffffffffffffffffffffffffffffffffffff16600160006113b38585611a11565b6000191660001916815260200190815260200160002060010160009054906101000a900473ffffffffffffffffffffffffffffffffffffffff1673ffffffffffffffffffffffffffffffffffffffff16141515611478576040517f08c379a000000000000000000000000000000000000000000000000000000000815260040180806020018281038252600d8152602001807f556e617574686f72697a65642e0000000000000000000000000000000000000081525060200191505060405180910390fd5b8484600082511115156114f3576040517f08c379a000000000000000000000000000000000000000000000000000000000815260040180806020018281038252601c8152602001807f50617373776f7264204f6e652063616e6e6f7420626520656d7074790000000081525060200191505060405180910390fd5b6000815111151561156c576040517f08c379a000000000000000000000000000000000000000000000000000000000815260040180806020018281038252601c8152602001807f50617373776f72642054776f2063616e6e6f7420626520656d7074790000000081525060200191505060405180910390fd5b3373ffffffffffffffffffffffffffffffffffffffff16600160006115918585611a11565b6000191660001916815260200190815260200160002060010160009054906101000a900473ffffffffffffffffffffffffffffffffffffffff1673ffffffffffffffffffffffffffffffffffffffff16141515611656576040517f08c379a000000000000000000000000000000000000000000000000000000000815260040180806020018281038252600d8152602001807f556e617574686f72697a65642e0000000000000000000000000000000000000081525060200191505060405180910390fd5b7fef1e811f932b8a7efec4142eb9790fe717392df3fe868665753cc51a106cda3933604051808273ffffffffffffffffffffffffffffffffffffffff1673ffffffffffffffffffffffffffffffffffffffff16815260200191505060405180910390a1600160006116c78989611a11565b600019166000191681526020019081526020016000206002015494505050505092915050565b828260008251111515611768576040517f08c379a000000000000000000000000000000000000000000000000000000000815260040180806020018281038252601c8152602001807f50617373776f7264204f6e652063616e6e6f7420626520656d7074790000000081525060200191505060405180910390fd5b600081511115156117e1576040517f08c379a000000000000000000000000000000000000000000000000000000000815260040180806020018281038252601c8152602001807f50617373776f72642054776f2063616e6e6f7420626520656d7074790000000081525060200191505060405180910390fd5b3373ffffffffffffffffffffffffffffffffffffffff16600160006118068585611a11565b6000191660001916815260200190815260200160002060010160009054906101000a900473ffffffffffffffffffffffffffffffffffffffff1673ffffffffffffffffffffffffffffffffffffffff161415156118cb576040517f08c379a000000000000000000000000000000000000000000000000000000000815260040180806020018281038252600d8152602001807f556e617574686f72697a65642e0000000000000000000000000000000000000081525060200191505060405180910390fd5b7f8aac726b8048b4b6b40253f64d5a5f4cbcd661baf6f3359bbbd3f9bcfdbbe1423384604051808373ffffffffffffffffffffffffffffffffffffffff1673ffffffffffffffffffffffffffffffffffffffff1681526020018281526020019250505060405180910390a182600160006119458888611a11565b6000191660001916815260200190815260200160002060020154101515156119d5576040517f08c379a00000000000000000000000000000000000000000000000000000000081526004018080602001828103825260108152602001807f4e6f7420656e6f7567682066756e64730000000000000000000000000000000081525060200191505060405180910390fd5b82600160006119e48888611a11565b60001916600019168152602001908152602001600020600201600082825403925050819055505050505050565b6000826040516020018082805190602001908083835b602083101515611a4c5780518252602082019150602081019050602083039250611a27565b6001836020036101000a0380198251168184511680821785525050505050509050019150506040516020818303038152906040526040518082805190602001908083835b602083101515611ab55780518252602082019150602081019050602083039250611a90565b6001836020036101000a0380198251168184511680821785525050505050509050019150506040518091039020826040516020018082805190602001908083835b602083101515611b1b5780518252602082019150602081019050602083039250611af6565b6001836020036101000a0380198251168184511680821785525050505050509050019150506040516020818303038152906040526040518082805190602001908083835b602083101515611b845780518252602082019150602081019050602083039250611b5f565b6001836020036101000a03801982511681845116808217855250505050505090500191505060405180910390206000809054906101000a900473ffffffffffffffffffffffffffffffffffffffff1660405160200180846000191660001916815260200183600019166000191681526020018273ffffffffffffffffffffffffffffffffffffffff1673ffffffffffffffffffffffffffffffffffffffff166c0100000000000000000000000002815260140193505050506040516020818303038152906040526040518082805190602001908083835b602083101515611c805780518252602082019150602081019050602083039250611c5b565b6001836020036101000a03801982511681845116808217855250505050505090500191505060405180910390209050929150505600a165627a7a7230582079488fd80406ee3f02aab304f92c005e139f0a7e4ec8583efdd47bad5f7c06fd0029",
  "source": "pragma solidity 0.4.24;\n\nimport \"./Exchangeable.sol\";\nimport \"./Pauseable.sol\";\n\ncontract Remittance is Exchangeable, Pauseable {\n\n  event LogDetailsofEmergencyWithdrawal(address sender);\n\n  constructor() public payable {}\n\n  function createRemittance( \n    address beneficiary, \n    address exchange,\n    string passwordOne,\n    string passwordTwo, \n    uint amount) public onlyIfRunning\n  {\n    addTransaction(beneficiary, exchange, passwordOne, passwordTwo, amount);\n  }\n\n  \n  function transferBalance(\n    string passwordOne, \n    string passwordTwo,\n    uint amount\n  ) public onlyIfRunning\n  {\n    updateBalance(passwordOne, passwordTwo, amount);\n    msg.sender.transfer(amount);\n  }\n\n  function emergencyWithdraw() public onlyWhenStopped onlyOwner {\n    emit LogDetailsofEmergencyWithdrawal(msg.sender);\n    msg.sender.transfer(address(this).balance);\n  }\n\n  function readBalance(string passwordOne, string passwordTwo) public onlyIfRunning onlyOwner returns (uint) {\n    return viewBalance(passwordOne, passwordTwo);\n  }\n}",
  "sourcePath": "/home/richard/DAPPS/Remittence/contracts/Remittance.sol",
  "compiler": {
    "name": "solc",
    "version": "0.4.24+commit.e67f0147.Emscripten.clang"
  },
  "schemaVersion": "2.0.1",
  "updatedAt": "2018-09-22T20:24:11.171Z"
}