{
  "contractName": "Remittance",
  "abi": [
    {
      "constant": false,
      "inputs": [],
      "name": "stopContract",
      "outputs": [],
      "payable": false,
      "stateMutability": "nonpayable",
      "type": "function"
    },
    {
      "constant": true,
      "inputs": [
        {
          "name": "",
          "type": "bytes32"
        }
      ],
      "name": "hashUsed",
      "outputs": [
        {
          "name": "",
          "type": "bool"
        }
      ],
      "payable": false,
      "stateMutability": "view",
      "type": "function"
    },
    {
      "constant": true,
      "inputs": [],
      "name": "owner",
      "outputs": [
        {
          "name": "",
          "type": "address"
        }
      ],
      "payable": false,
      "stateMutability": "view",
      "type": "function"
    },
    {
      "constant": false,
      "inputs": [
        {
          "name": "newOwner",
          "type": "address"
        }
      ],
      "name": "changeOwner",
      "outputs": [],
      "payable": false,
      "stateMutability": "nonpayable",
      "type": "function"
    },
    {
      "constant": false,
      "inputs": [],
      "name": "resumeContract",
      "outputs": [],
      "payable": false,
      "stateMutability": "nonpayable",
      "type": "function"
    },
    {
      "inputs": [],
      "payable": true,
      "stateMutability": "payable",
      "type": "constructor"
    },
    {
      "anonymous": false,
      "inputs": [
        {
          "indexed": false,
          "name": "sender",
          "type": "address"
        }
      ],
      "name": "LogDetailsofEmergencyWithdrawal",
      "type": "event"
    },
    {
      "anonymous": false,
      "inputs": [
        {
          "indexed": false,
          "name": "sender",
          "type": "address"
        },
        {
          "indexed": false,
          "name": "beneficiary",
          "type": "address"
        },
        {
          "indexed": false,
          "name": "exchange",
          "type": "address"
        },
        {
          "indexed": false,
          "name": "amount",
          "type": "uint256"
        }
      ],
      "name": "LogAddTransaction",
      "type": "event"
    },
    {
      "anonymous": false,
      "inputs": [
        {
          "indexed": false,
          "name": "sender",
          "type": "address"
        }
      ],
      "name": "LogViewBalance",
      "type": "event"
    },
    {
      "anonymous": false,
      "inputs": [
        {
          "indexed": false,
          "name": "sender",
          "type": "address"
        },
        {
          "indexed": false,
          "name": "deduction",
          "type": "uint256"
        }
      ],
      "name": "LogUpdateBalance",
      "type": "event"
    },
    {
      "anonymous": false,
      "inputs": [
        {
          "indexed": false,
          "name": "account",
          "type": "address"
        }
      ],
      "name": "LogContractStopped",
      "type": "event"
    },
    {
      "anonymous": false,
      "inputs": [
        {
          "indexed": false,
          "name": "account",
          "type": "address"
        }
      ],
      "name": "LogContractResumed",
      "type": "event"
    },
    {
      "anonymous": false,
      "inputs": [
        {
          "indexed": false,
          "name": "newOwner",
          "type": "address"
        },
        {
          "indexed": false,
          "name": "currentOwner",
          "type": "address"
        }
      ],
      "name": "LogOwnerChanged",
      "type": "event"
    },
    {
      "constant": true,
      "inputs": [
        {
          "name": "exchange",
          "type": "address"
        },
        {
          "name": "beneficiary",
          "type": "string"
        }
      ],
      "name": "returnPassword",
      "outputs": [
        {
          "name": "",
          "type": "bytes32"
        }
      ],
      "payable": false,
      "stateMutability": "view",
      "type": "function"
    },
    {
      "constant": false,
      "inputs": [
        {
          "name": "beneficiary",
          "type": "address"
        },
        {
          "name": "exchange",
          "type": "address"
        },
        {
          "name": "passwordOne",
          "type": "string"
        },
        {
          "name": "amount",
          "type": "uint256"
        }
      ],
      "name": "createRemittance",
      "outputs": [],
      "payable": false,
      "stateMutability": "nonpayable",
      "type": "function"
    },
    {
      "constant": false,
      "inputs": [
        {
          "name": "passwordHash",
          "type": "bytes32"
        },
        {
          "name": "deduction",
          "type": "uint256"
        }
      ],
      "name": "transferBalance",
      "outputs": [],
      "payable": false,
      "stateMutability": "nonpayable",
      "type": "function"
    },
    {
      "constant": false,
      "inputs": [],
      "name": "emergencyWithdraw",
      "outputs": [],
      "payable": false,
      "stateMutability": "nonpayable",
      "type": "function"
    },
    {
      "constant": false,
      "inputs": [
        {
          "name": "passwordHash",
          "type": "bytes32"
        }
      ],
      "name": "readBalance",
      "outputs": [
        {
          "name": "",
          "type": "uint256"
        }
      ],
      "payable": false,
      "stateMutability": "nonpayable",
      "type": "function"
    }
  ],
  "bytecode": "0x608060405260008060146101000a81548160ff021916908315150217905550336000806101000a81548173ffffffffffffffffffffffffffffffffffffffff021916908373ffffffffffffffffffffffffffffffffffffffff160217905550611a908061006d6000396000f3006080604052600436106100a4576000357c0100000000000000000000000000000000000000000000000000000000900463ffffffff16806312253a6c146100a9578063533e62b6146100c057806387c7c0ca146101095780638da5cb5b146101bc578063a6f9dae114610213578063c4bc5da514610256578063cbfe6e621461026d578063db2e21bc146102a8578063e85dca9e146102bf578063f1a5322714610304575b600080fd5b3480156100b557600080fd5b506100be6103a9565b005b3480156100cc57600080fd5b506100ef60048036038101908080356000191690602001909291905050506104ed565b604051808215151515815260200191505060405180910390f35b34801561011557600080fd5b506101ba600480360381019080803573ffffffffffffffffffffffffffffffffffffffff169060200190929190803573ffffffffffffffffffffffffffffffffffffffff169060200190929190803590602001908201803590602001908080601f01602080910402602001604051908101604052809392919081815260200183838082843782019150505050505091929192908035906020019092919050505061050d565b005b3480156101c857600080fd5b506101d1610c68565b604051808273ffffffffffffffffffffffffffffffffffffffff1673ffffffffffffffffffffffffffffffffffffffff16815260200191505060405180910390f35b34801561021f57600080fd5b50610254600480360381019080803573ffffffffffffffffffffffffffffffffffffffff169060200190929190505050610c8d565b005b34801561026257600080fd5b5061026b610e2b565b005b34801561027957600080fd5b506102a6600480360381019080803560001916906020019092919080359060200190929190505050610f6e565b005b3480156102b457600080fd5b506102bd611304565b005b3480156102cb57600080fd5b506102ee600480360381019080803560001916906020019092919050505061150f565b6040518082815260200191505060405180910390f35b34801561031057600080fd5b5061038b600480360381019080803573ffffffffffffffffffffffffffffffffffffffff169060200190929190803590602001908201803590602001908080601f01602080910402602001604051908101604052809392919081815260200183838082843782019150505050505091929192905050506117b8565b60405180826000191660001916815260200191505060405180910390f35b3373ffffffffffffffffffffffffffffffffffffffff166000809054906101000a900473ffffffffffffffffffffffffffffffffffffffff1673ffffffffffffffffffffffffffffffffffffffff1614151561046d576040517f08c379a000000000000000000000000000000000000000000000000000000000815260040180806020018281038252600c8152602001807f556e6174686f72697a65642e000000000000000000000000000000000000000081525060200191505060405180910390fd5b7f9f62d097893f0c321aba04fdc78b0d5cbe409aef7b6f7ce87508801b775c5b6d33604051808273ffffffffffffffffffffffffffffffffffffffff1673ffffffffffffffffffffffffffffffffffffffff16815260200191505060405180910390a16001600060146101000a81548160ff021916908315150217905550565b60016020528060005260406000206000915054906101000a900460ff1681565b600060016000846040516020018082805190602001908083835b60208310151561054c5780518252602082019150602081019050602083039250610527565b6001836020036101000a0380198251168184511680821785525050505050509050019150506040516020818303038152906040526040518082805190602001908083835b6020831015156105b55780518252602082019150602081019050602083039250610590565b6001836020036101000a03801982511681845116808217855250505050505090500191505060405180910390206000191660001916815260200190815260200160002060009054906101000a900460ff168386868560008451111515610683576040517f08c379a000000000000000000000000000000000000000000000000000000000815260040180806020018281038252601c8152602001807f50617373776f7264204f6e652063616e6e6f7420626520656d7074790000000081525060200191505060405180910390fd5b60001515851515141515610725576040517f08c379a00000000000000000000000000000000000000000000000000000000081526004018080602001828103825260248152602001807f546869732070617373776f72642068617320616c7265616479206265656e207581526020017f7365642e0000000000000000000000000000000000000000000000000000000081525060400191505060405180910390fd5b600073ffffffffffffffffffffffffffffffffffffffff168373ffffffffffffffffffffffffffffffffffffffff16141515156107f0576040517f08c379a00000000000000000000000000000000000000000000000000000000081526004018080602001828103825260228152602001807f42656e656669636961727920616464726573732063616e6e6f74206265206e7581526020017f6c6c00000000000000000000000000000000000000000000000000000000000081525060400191505060405180910390fd5b600073ffffffffffffffffffffffffffffffffffffffff168273ffffffffffffffffffffffffffffffffffffffff1614151515610895576040517f08c379a000000000000000000000000000000000000000000000000000000000815260040180806020018281038252601f8152602001807f45786368616e676520616464726573732063616e6e6f74206265206e756c6c0081525060200191505060405180910390fd5b60008111151561090d576040517f08c379a00000000000000000000000000000000000000000000000000000000081526004018080602001828103825260158152602001807f416d6f756e742063616e6e6f74206265207a65726f000000000000000000000081525060200191505060405180910390fd5b3373ffffffffffffffffffffffffffffffffffffffff166000809054906101000a900473ffffffffffffffffffffffffffffffffffffffff1673ffffffffffffffffffffffffffffffffffffffff161415156109d1576040517f08c379a000000000000000000000000000000000000000000000000000000000815260040180806020018281038252600c8152602001807f556e6174686f72697a65642e000000000000000000000000000000000000000081525060200191505060405180910390fd5b7f087aa92b15f503f99dce14971538d539c2172ae07c793c59be503258cb939a85338b8b8a604051808573ffffffffffffffffffffffffffffffffffffffff1673ffffffffffffffffffffffffffffffffffffffff1681526020018473ffffffffffffffffffffffffffffffffffffffff1673ffffffffffffffffffffffffffffffffffffffff1681526020018373ffffffffffffffffffffffffffffffffffffffff1673ffffffffffffffffffffffffffffffffffffffff16815260200182815260200194505050505060405180910390a160018060008a6040516020018082805190602001908083835b602083101515610ae25780518252602082019150602081019050602083039250610abd565b6001836020036101000a0380198251168184511680821785525050505050509050019150506040516020818303038152906040526040518082805190602001908083835b602083101515610b4b5780518252602082019150602081019050602083039250610b26565b6001836020036101000a03801982511681845116808217855250505050505090500191505060405180910390206000191660001916815260200190815260200160002060006101000a81548160ff021916908315150217905550610baf89896117b8565b95506060604051908101604052808a73ffffffffffffffffffffffffffffffffffffffff1681526020018881526020014281525060026000886000191660001916815260200190815260200160002060008201518160000160006101000a81548173ffffffffffffffffffffffffffffffffffffffff021916908373ffffffffffffffffffffffffffffffffffffffff160217905550602082015181600101556040820151816002015590505050505050505050505050565b6000809054906101000a900473ffffffffffffffffffffffffffffffffffffffff1681565b3373ffffffffffffffffffffffffffffffffffffffff166000809054906101000a900473ffffffffffffffffffffffffffffffffffffffff1673ffffffffffffffffffffffffffffffffffffffff16141515610d51576040517f08c379a000000000000000000000000000000000000000000000000000000000815260040180806020018281038252600c8152602001807f556e6174686f72697a65642e000000000000000000000000000000000000000081525060200191505060405180910390fd5b7ffcf23a92150d56e85e3a3d33b357493246e55783095eb6a733eb8439ffc752c88133604051808373ffffffffffffffffffffffffffffffffffffffff1673ffffffffffffffffffffffffffffffffffffffff1681526020018273ffffffffffffffffffffffffffffffffffffffff1673ffffffffffffffffffffffffffffffffffffffff1681526020019250505060405180910390a1806000806101000a81548173ffffffffffffffffffffffffffffffffffffffff021916908373ffffffffffffffffffffffffffffffffffffffff16021790555050565b3373ffffffffffffffffffffffffffffffffffffffff166000809054906101000a900473ffffffffffffffffffffffffffffffffffffffff1673ffffffffffffffffffffffffffffffffffffffff16141515610eef576040517f08c379a000000000000000000000000000000000000000000000000000000000815260040180806020018281038252600c8152602001807f556e6174686f72697a65642e000000000000000000000000000000000000000081525060200191505060405180910390fd5b7ff772744d65604cbdd938ab80c114b946145893718b4f58fc0fc6453aa8d4258f33604051808273ffffffffffffffffffffffffffffffffffffffff1673ffffffffffffffffffffffffffffffffffffffff16815260200191505060405180910390a160008060146101000a81548160ff021916908315150217905550565b60026000836000191660001916815260200190815260200160002060000160009054906101000a900473ffffffffffffffffffffffffffffffffffffffff1660026000846000191660001916815260200190815260200160002060020154836000602060ff16111515611049576040517f08c379a000000000000000000000000000000000000000000000000000000000815260040180806020018281038252601d8152602001807f50617373776f726420686173682063616e6e6f7420626520656d70747900000081525060200191505060405180910390fd5b3373ffffffffffffffffffffffffffffffffffffffff168373ffffffffffffffffffffffffffffffffffffffff161415156110ec576040517f08c379a000000000000000000000000000000000000000000000000000000000815260040180806020018281038252600d8152602001807f556e617574686f72697a6564210000000000000000000000000000000000000081525060200191505060405180910390fd5b601e6018603c804286038115156110ff57fe5b0481151561110957fe5b0481151561111357fe5b04101515611189576040517f08c379a00000000000000000000000000000000000000000000000000000000081526004018080602001828103825260198152602001807f333020646179207769746864726177616c20657870697265640000000000000081525060200191505060405180910390fd5b7f8aac726b8048b4b6b40253f64d5a5f4cbcd661baf6f3359bbbd3f9bcfdbbe1423385604051808373ffffffffffffffffffffffffffffffffffffffff1673ffffffffffffffffffffffffffffffffffffffff1681526020018281526020019250505060405180910390a183600260008760001916600019168152602001908152602001600020600101541015151561128a576040517f08c379a00000000000000000000000000000000000000000000000000000000081526004018080602001828103825260108152602001807f4e6f7420656e6f7567682066756e64730000000000000000000000000000000081525060200191505060405180910390fd5b83600260008760001916600019168152602001908152602001600020600101600082825403925050819055503373ffffffffffffffffffffffffffffffffffffffff166108fc859081150290604051600060405180830381858888f193505050501580156112fc573d6000803e3d6000fd5b505050505050565b600060149054906101000a900460ff161515611388576040517f08c379a00000000000000000000000000000000000000000000000000000000081526004018080602001828103825260168152602001807f436f6e7472616374207374696c6c206163746976652e0000000000000000000081525060200191505060405180910390fd5b3373ffffffffffffffffffffffffffffffffffffffff166000809054906101000a900473ffffffffffffffffffffffffffffffffffffffff1673ffffffffffffffffffffffffffffffffffffffff1614151561144c576040517f08c379a000000000000000000000000000000000000000000000000000000000815260040180806020018281038252600c8152602001807f556e6174686f72697a65642e000000000000000000000000000000000000000081525060200191505060405180910390fd5b7f882b8ea5a1d449a306b435e85061d27b63173b8aaed2c29ab872d123b8b1579733604051808273ffffffffffffffffffffffffffffffffffffffff1673ffffffffffffffffffffffffffffffffffffffff16815260200191505060405180910390a13373ffffffffffffffffffffffffffffffffffffffff166108fc3073ffffffffffffffffffffffffffffffffffffffff16319081150290604051600060405180830381858888f1935050505015801561150c573d6000803e3d6000fd5b50565b600060026000836000191660001916815260200190815260200160002060000160009054906101000a900473ffffffffffffffffffffffffffffffffffffffff1660026000846000191660001916815260200190815260200160002060020154836000602060ff161115156115ec576040517f08c379a000000000000000000000000000000000000000000000000000000000815260040180806020018281038252601d8152602001807f50617373776f726420686173682063616e6e6f7420626520656d70747900000081525060200191505060405180910390fd5b3373ffffffffffffffffffffffffffffffffffffffff168373ffffffffffffffffffffffffffffffffffffffff1614151561168f576040517f08c379a000000000000000000000000000000000000000000000000000000000815260040180806020018281038252600d8152602001807f556e617574686f72697a6564210000000000000000000000000000000000000081525060200191505060405180910390fd5b601e6018603c804286038115156116a257fe5b048115156116ac57fe5b048115156116b657fe5b0410151561172c576040517f08c379a00000000000000000000000000000000000000000000000000000000081526004018080602001828103825260198152602001807f333020646179207769746864726177616c20657870697265640000000000000081525060200191505060405180910390fd5b7fef1e811f932b8a7efec4142eb9790fe717392df3fe868665753cc51a106cda3933604051808273ffffffffffffffffffffffffffffffffffffffff1673ffffffffffffffffffffffffffffffffffffffff16815260200191505060405180910390a1600260008660001916600019168152602001908152602001600020600101549350505050919050565b60003373ffffffffffffffffffffffffffffffffffffffff166000809054906101000a900473ffffffffffffffffffffffffffffffffffffffff1673ffffffffffffffffffffffffffffffffffffffff1614151561187e576040517f08c379a000000000000000000000000000000000000000000000000000000000815260040180806020018281038252600c8152602001807f556e6174686f72697a65642e000000000000000000000000000000000000000081525060200191505060405180910390fd5b82826040516020018082805190602001908083835b6020831015156118b85780518252602082019150602081019050602083039250611893565b6001836020036101000a0380198251168184511680821785525050505050509050019150506040516020818303038152906040526040518082805190602001908083835b60208310151561192157805182526020820191506020810190506020830392506118fc565b6001836020036101000a038019825116818451168082178552505050505050905001915050604051809103902030604051602001808473ffffffffffffffffffffffffffffffffffffffff1673ffffffffffffffffffffffffffffffffffffffff166c0100000000000000000000000002815260140183600019166000191681526020018273ffffffffffffffffffffffffffffffffffffffff1673ffffffffffffffffffffffffffffffffffffffff166c0100000000000000000000000002815260140193505050506040516020818303038152906040526040518082805190602001908083835b602083101515611a2f5780518252602082019150602081019050602083039250611a0a565b6001836020036101000a03801982511681845116808217855250505050505090500191505060405180910390209050929150505600a165627a7a7230582069ff5b53b48abc3d6e03f9bc2ef50d83ea010cf28d9a451e7a82054c2dcce7920029",
  "source": "pragma solidity 0.4.24;\n\nimport \"./Pauseable.sol\";\n\ncontract Remittance is  Pauseable {\n\n  event LogDetailsofEmergencyWithdrawal(address sender);\n  event LogAddTransaction(address sender, address beneficiary,address exchange,uint amount);\n  event LogViewBalance(address sender);\n  event LogUpdateBalance(address sender,uint deduction);\n\n  modifier onlyIfDetailsAreCorrect(bool hashBeingUsed, string passwordOne, address beneficiary,address exchange, uint amount)\n  {\n    require (bytes(passwordOne).length > 0,\"Password One cannot be empty\");\n    require (hashBeingUsed == false,\"This password has already been used.\");\n    require (beneficiary != address(0),\"Beneficiary address cannot be null\");\n    require (exchange != address(0),\"Exchange address cannot be null\");\n    require (amount > 0,\"Amount cannot be zero\");\n    _;\n  }\n\n  modifier onlyIfExchange(address exchange, uint timestampContractCreated, bytes32 passwordHash) \n  {\n    require (passwordHash.length > 0,\"Password hash cannot be empty\");\n    require (exchange == msg.sender,\"Unauthorized!\");\n    require ((((timestampContractCreated - now) / 60 / 60 / 24 ) < 30), \"30 day withdrawal expired\");\n    _;\n  }\n\n  constructor () public payable {}\n\n  struct RemittanceStruct {\n    address exchange;\n    uint amount;\n    uint timestamp;\n  }\n\n  mapping (bytes32 => bool) public hashUsed;\n  mapping (bytes32 => RemittanceStruct) internal pendingWithdrawals;\n\n  function returnPassword(address exchange, string beneficiary) public onlyOwner view returns(bytes32) {\n    return keccak256(abi.encodePacked(exchange, keccak256(abi.encodePacked(beneficiary)), address(this)));\n  }\n\n  function createRemittance(\n    address beneficiary, \n    address exchange,\n    string passwordOne,\n    uint amount\n  )  public onlyIfDetailsAreCorrect(hashUsed[keccak256(abi.encodePacked(passwordOne))], passwordOne, beneficiary, exchange,amount) onlyOwner\n  {\n    emit LogAddTransaction(msg.sender,beneficiary, exchange, amount);\n    hashUsed[keccak256(abi.encodePacked(passwordOne))] = true;\n    bytes32 passwordHash = returnPassword(exchange,passwordOne);\n    pendingWithdrawals[passwordHash] = RemittanceStruct(exchange,amount,now);\n  }\n\n  function transferBalance(\n    bytes32 passwordHash,\n    uint deduction\n  )  public onlyIfExchange(pendingWithdrawals[passwordHash].exchange, pendingWithdrawals[passwordHash].timestamp, passwordHash)\n  {\n    emit LogUpdateBalance(msg.sender,deduction);\n    require (pendingWithdrawals[passwordHash].amount >= deduction,\"Not enough funds\");\n    pendingWithdrawals[passwordHash].amount -= deduction;\n    msg.sender.transfer(deduction);\n  }\n\n  function emergencyWithdraw() public onlyWhenStopped onlyOwner {\n    emit LogDetailsofEmergencyWithdrawal(msg.sender);\n    msg.sender.transfer(address(this).balance);\n  }\n\n  function readBalance(\n    bytes32 passwordHash\n  )  public onlyIfExchange(pendingWithdrawals[passwordHash].exchange, pendingWithdrawals[passwordHash].timestamp,passwordHash) returns (uint)\n  {\n    emit LogViewBalance(msg.sender);\n    return (pendingWithdrawals[passwordHash].amount);\n  }\n}",
  "sourcePath": "/home/richard/DAPPS/Remittence/contracts/Remittance.sol",
  "compiler": {
    "name": "solc",
    "version": "0.4.24+commit.e67f0147.Emscripten.clang"
  },
  "schemaVersion": "2.0.1",
  "updatedAt": "2018-09-23T22:08:47.417Z"
}